{
  "_format": "hh-sol-artifact-1",
  "contractName": "NFTMarket",
  "sourceName": "contracts/NFTMarket.sol",
  "abi": [
    {
      "inputs": [],
      "stateMutability": "nonpayable",
      "type": "constructor"
    },
    {
      "anonymous": false,
      "inputs": [
        {
          "indexed": true,
          "internalType": "uint256",
          "name": "itemId",
          "type": "uint256"
        },
        {
          "indexed": true,
          "internalType": "address",
          "name": "nftContract",
          "type": "address"
        },
        {
          "indexed": true,
          "internalType": "uint256",
          "name": "tokenId",
          "type": "uint256"
        },
        {
          "indexed": false,
          "internalType": "address",
          "name": "seller",
          "type": "address"
        },
        {
          "indexed": false,
          "internalType": "address",
          "name": "owner",
          "type": "address"
        },
        {
          "indexed": false,
          "internalType": "uint256",
          "name": "price",
          "type": "uint256"
        },
        {
          "indexed": false,
          "internalType": "bool",
          "name": "sold",
          "type": "bool"
        }
      ],
      "name": "MarketItemCreated",
      "type": "event"
    },
    {
      "inputs": [
        {
          "internalType": "address",
          "name": "nftContract",
          "type": "address"
        },
        {
          "internalType": "uint256",
          "name": "tokenId",
          "type": "uint256"
        },
        {
          "internalType": "uint256",
          "name": "price",
          "type": "uint256"
        }
      ],
      "name": "createMarketItem",
      "outputs": [],
      "stateMutability": "payable",
      "type": "function"
    },
    {
      "inputs": [
        {
          "internalType": "address",
          "name": "nftContract",
          "type": "address"
        },
        {
          "internalType": "uint256",
          "name": "itemId",
          "type": "uint256"
        }
      ],
      "name": "createMarketSale",
      "outputs": [],
      "stateMutability": "payable",
      "type": "function"
    },
    {
      "inputs": [],
      "name": "fetchItemsCreated",
      "outputs": [
        {
          "components": [
            {
              "internalType": "uint256",
              "name": "itemId",
              "type": "uint256"
            },
            {
              "internalType": "address",
              "name": "nftContract",
              "type": "address"
            },
            {
              "internalType": "uint256",
              "name": "tokenId",
              "type": "uint256"
            },
            {
              "internalType": "address payable",
              "name": "seller",
              "type": "address"
            },
            {
              "internalType": "address payable",
              "name": "owner",
              "type": "address"
            },
            {
              "internalType": "uint256",
              "name": "price",
              "type": "uint256"
            },
            {
              "internalType": "bool",
              "name": "sold",
              "type": "bool"
            }
          ],
          "internalType": "struct NFTMarket.MarketItem[]",
          "name": "",
          "type": "tuple[]"
        }
      ],
      "stateMutability": "view",
      "type": "function"
    },
    {
      "inputs": [],
      "name": "fetchMarketItems",
      "outputs": [
        {
          "components": [
            {
              "internalType": "uint256",
              "name": "itemId",
              "type": "uint256"
            },
            {
              "internalType": "address",
              "name": "nftContract",
              "type": "address"
            },
            {
              "internalType": "uint256",
              "name": "tokenId",
              "type": "uint256"
            },
            {
              "internalType": "address payable",
              "name": "seller",
              "type": "address"
            },
            {
              "internalType": "address payable",
              "name": "owner",
              "type": "address"
            },
            {
              "internalType": "uint256",
              "name": "price",
              "type": "uint256"
            },
            {
              "internalType": "bool",
              "name": "sold",
              "type": "bool"
            }
          ],
          "internalType": "struct NFTMarket.MarketItem[]",
          "name": "",
          "type": "tuple[]"
        }
      ],
      "stateMutability": "view",
      "type": "function"
    },
    {
      "inputs": [],
      "name": "fetchMyNFts",
      "outputs": [
        {
          "components": [
            {
              "internalType": "uint256",
              "name": "itemId",
              "type": "uint256"
            },
            {
              "internalType": "address",
              "name": "nftContract",
              "type": "address"
            },
            {
              "internalType": "uint256",
              "name": "tokenId",
              "type": "uint256"
            },
            {
              "internalType": "address payable",
              "name": "seller",
              "type": "address"
            },
            {
              "internalType": "address payable",
              "name": "owner",
              "type": "address"
            },
            {
              "internalType": "uint256",
              "name": "price",
              "type": "uint256"
            },
            {
              "internalType": "bool",
              "name": "sold",
              "type": "bool"
            }
          ],
          "internalType": "struct NFTMarket.MarketItem[]",
          "name": "",
          "type": "tuple[]"
        }
      ],
      "stateMutability": "view",
      "type": "function"
    },
    {
      "inputs": [],
      "name": "getListingPrice",
      "outputs": [
        {
          "internalType": "uint256",
          "name": "",
          "type": "uint256"
        }
      ],
      "stateMutability": "view",
      "type": "function"
    },
    {
      "inputs": [
        {
          "internalType": "uint256",
          "name": "_price",
          "type": "uint256"
        }
      ],
      "name": "setListingPrice",
      "outputs": [
        {
          "internalType": "uint256",
          "name": "",
          "type": "uint256"
        }
      ],
      "stateMutability": "nonpayable",
      "type": "function"
    }
  ],
  "bytecode": "0x608060405266f8b0a10e47000060045534801561001b57600080fd5b50600160008190555033600360006101000a81548173ffffffffffffffffffffffffffffffffffffffff021916908373ffffffffffffffffffffffffffffffffffffffff1602179055506119d6806100746000396000f3fe6080604052600436106100705760003560e01c80637c726b691161004e5780637c726b69146100e75780638dcb419c14610124578063c23b139e1461014f578063f064c32e1461016b57610070565b80630f08efe01461007557806312e85585146100a057806358eb2df5146100cb575b600080fd5b34801561008157600080fd5b5061008a610196565b604051610097919061166b565b60405180910390f35b3480156100ac57600080fd5b506100b56104c2565b6040516100c2919061170d565b60405180910390f35b6100e560048036038101906100e0919061137e565b6104cc565b005b3480156100f357600080fd5b5061010e600480360381019061010991906113cd565b610830565b60405161011b919061170d565b60405180910390f35b34801561013057600080fd5b50610139610878565b604051610146919061166b565b60405180910390f35b61016960048036038101906101649190611342565b610c19565b005b34801561017757600080fd5b50610180610ed2565b60405161018d919061166b565b60405180910390f35b606060006101a46001611273565b905060006101b26002611273565b6101bc6001611273565b6101c691906117c8565b90506000808267ffffffffffffffff81111561020b577f4e487b7100000000000000000000000000000000000000000000000000000000600052604160045260246000fd5b60405190808252806020026020018201604052801561024457816020015b610231611297565b8152602001906001900390816102295790505b50905060005b848110156104b757600073ffffffffffffffffffffffffffffffffffffffff166005600060018461027b9190611772565b815260200190815260200160002060040160009054906101000a900473ffffffffffffffffffffffffffffffffffffffff1673ffffffffffffffffffffffffffffffffffffffff1614156104a4576000600560006001846102dc9190611772565b81526020019081526020016000206000015490506000600560008381526020019081526020016000209050806040518060e0016040529081600082015481526020016001820160009054906101000a900473ffffffffffffffffffffffffffffffffffffffff1673ffffffffffffffffffffffffffffffffffffffff1673ffffffffffffffffffffffffffffffffffffffff168152602001600282015481526020016003820160009054906101000a900473ffffffffffffffffffffffffffffffffffffffff1673ffffffffffffffffffffffffffffffffffffffff1673ffffffffffffffffffffffffffffffffffffffff1681526020016004820160009054906101000a900473ffffffffffffffffffffffffffffffffffffffff1673ffffffffffffffffffffffffffffffffffffffff1673ffffffffffffffffffffffffffffffffffffffff168152602001600582015481526020016006820160009054906101000a900460ff161515151581525050848681518110610487577f4e487b7100000000000000000000000000000000000000000000000000000000600052603260045260246000fd5b602002602001018190525060018561049f9190611772565b945050505b80806104af90611856565b91505061024a565b508094505050505090565b6000600454905090565b60026000541415610512576040517f08c379a0000000000000000000000000000000000000000000000000000000008152600401610509906116cd565b60405180910390fd5b60026000819055506000811161055d576040517f08c379a00000000000000000000000000000000000000000000000000000000081526004016105549061168d565b60405180910390fd5b60045434146105a1576040517f08c379a0000000000000000000000000000000000000000000000000000000008152600401610598906116ad565b60405180910390fd5b6105ab6001611281565b60006105b76001611273565b90506040518060e001604052808281526020018573ffffffffffffffffffffffffffffffffffffffff1681526020018481526020013373ffffffffffffffffffffffffffffffffffffffff168152602001600073ffffffffffffffffffffffffffffffffffffffff16815260200183815260200160001515815250600560008381526020019081526020016000206000820151816000015560208201518160010160006101000a81548173ffffffffffffffffffffffffffffffffffffffff021916908373ffffffffffffffffffffffffffffffffffffffff1602179055506040820151816002015560608201518160030160006101000a81548173ffffffffffffffffffffffffffffffffffffffff021916908373ffffffffffffffffffffffffffffffffffffffff16021790555060808201518160040160006101000a81548173ffffffffffffffffffffffffffffffffffffffff021916908373ffffffffffffffffffffffffffffffffffffffff16021790555060a0820151816005015560c08201518160060160006101000a81548160ff0219169083151502179055509050508373ffffffffffffffffffffffffffffffffffffffff166323b872dd3330866040518463ffffffff1660e01b8152600401610798939291906115ef565b600060405180830381600087803b1580156107b257600080fd5b505af11580156107c6573d6000803e3d6000fd5b50505050828473ffffffffffffffffffffffffffffffffffffffff16827f045dfa01dcba2b36aba1d3dc4a874f4b0c5d2fbeb8d2c4b34a7d88c8d8f929d133600087600060405161081a9493929190611626565b60405180910390a4506001600081905550505050565b60003073ffffffffffffffffffffffffffffffffffffffff163373ffffffffffffffffffffffffffffffffffffffff16141561086e57816004819055505b6004549050919050565b606060006108866001611273565b905060008060005b8381101561092f573373ffffffffffffffffffffffffffffffffffffffff16600560006001846108be9190611772565b815260200190815260200160002060040160009054906101000a900473ffffffffffffffffffffffffffffffffffffffff1673ffffffffffffffffffffffffffffffffffffffff16141561091c576001836109199190611772565b92505b808061092790611856565b91505061088e565b5060008267ffffffffffffffff811115610972577f4e487b7100000000000000000000000000000000000000000000000000000000600052604160045260246000fd5b6040519080825280602002602001820160405280156109ab57816020015b610998611297565b8152602001906001900390816109905790505b50905060005b84811015610c0e573373ffffffffffffffffffffffffffffffffffffffff16600560006001846109e19190611772565b815260200190815260200160002060040160009054906101000a900473ffffffffffffffffffffffffffffffffffffffff1673ffffffffffffffffffffffffffffffffffffffff161415610bfb57600060056000600184610a429190611772565b81526020019081526020016000206000015490506000600560008381526020019081526020016000209050806040518060e0016040529081600082015481526020016001820160009054906101000a900473ffffffffffffffffffffffffffffffffffffffff1673ffffffffffffffffffffffffffffffffffffffff1673ffffffffffffffffffffffffffffffffffffffff168152602001600282015481526020016003820160009054906101000a900473ffffffffffffffffffffffffffffffffffffffff1673ffffffffffffffffffffffffffffffffffffffff1673ffffffffffffffffffffffffffffffffffffffff1681526020016004820160009054906101000a900473ffffffffffffffffffffffffffffffffffffffff1673ffffffffffffffffffffffffffffffffffffffff1673ffffffffffffffffffffffffffffffffffffffff168152602001600582015481526020016006820160009054906101000a900460ff161515151581525050848681518110610bed577f4e487b7100000000000000000000000000000000000000000000000000000000600052603260045260246000fd5b602002602001018190525050505b8080610c0690611856565b9150506109b1565b508094505050505090565b60026000541415610c5f576040517f08c379a0000000000000000000000000000000000000000000000000000000008152600401610c56906116cd565b60405180910390fd5b6002600081905550600060056000838152602001908152602001600020600501549050600060056000848152602001908152602001600020600201549050813414610cdf576040517f08c379a0000000000000000000000000000000000000000000000000000000008152600401610cd6906116ed565b60405180910390fd5b6005600084815260200190815260200160002060030160009054906101000a900473ffffffffffffffffffffffffffffffffffffffff1673ffffffffffffffffffffffffffffffffffffffff166108fc349081150290604051600060405180830381858888f19350505050158015610d5b573d6000803e3d6000fd5b508373ffffffffffffffffffffffffffffffffffffffff166323b872dd3033846040518463ffffffff1660e01b8152600401610d99939291906115ef565b600060405180830381600087803b158015610db357600080fd5b505af1158015610dc7573d6000803e3d6000fd5b50505050336005600085815260200190815260200160002060040160006101000a81548173ffffffffffffffffffffffffffffffffffffffff021916908373ffffffffffffffffffffffffffffffffffffffff16021790555060016005600085815260200190815260200160002060060160006101000a81548160ff021916908315150217905550610e596002611281565b600360009054906101000a900473ffffffffffffffffffffffffffffffffffffffff1673ffffffffffffffffffffffffffffffffffffffff166108fc6004549081150290604051600060405180830381858888f19350505050158015610ec3573d6000803e3d6000fd5b50505060016000819055505050565b60606000610ee06001611273565b905060008060005b83811015610f89573373ffffffffffffffffffffffffffffffffffffffff1660056000600184610f189190611772565b815260200190815260200160002060030160009054906101000a900473ffffffffffffffffffffffffffffffffffffffff1673ffffffffffffffffffffffffffffffffffffffff161415610f7657600183610f739190611772565b92505b8080610f8190611856565b915050610ee8565b5060008267ffffffffffffffff811115610fcc577f4e487b7100000000000000000000000000000000000000000000000000000000600052604160045260246000fd5b60405190808252806020026020018201604052801561100557816020015b610ff2611297565b815260200190600190039081610fea5790505b50905060005b84811015611268573373ffffffffffffffffffffffffffffffffffffffff166005600060018461103b9190611772565b815260200190815260200160002060030160009054906101000a900473ffffffffffffffffffffffffffffffffffffffff1673ffffffffffffffffffffffffffffffffffffffff1614156112555760006005600060018461109c9190611772565b81526020019081526020016000206000015490506000600560008381526020019081526020016000209050806040518060e0016040529081600082015481526020016001820160009054906101000a900473ffffffffffffffffffffffffffffffffffffffff1673ffffffffffffffffffffffffffffffffffffffff1673ffffffffffffffffffffffffffffffffffffffff168152602001600282015481526020016003820160009054906101000a900473ffffffffffffffffffffffffffffffffffffffff1673ffffffffffffffffffffffffffffffffffffffff1673ffffffffffffffffffffffffffffffffffffffff1681526020016004820160009054906101000a900473ffffffffffffffffffffffffffffffffffffffff1673ffffffffffffffffffffffffffffffffffffffff1673ffffffffffffffffffffffffffffffffffffffff168152602001600582015481526020016006820160009054906101000a900460ff161515151581525050848681518110611247577f4e487b7100000000000000000000000000000000000000000000000000000000600052603260045260246000fd5b602002602001018190525050505b808061126090611856565b91505061100b565b508094505050505090565b600081600001549050919050565b6001816000016000828254019250508190555050565b6040518060e0016040528060008152602001600073ffffffffffffffffffffffffffffffffffffffff16815260200160008152602001600073ffffffffffffffffffffffffffffffffffffffff168152602001600073ffffffffffffffffffffffffffffffffffffffff168152602001600081526020016000151581525090565b60008135905061132781611972565b92915050565b60008135905061133c81611989565b92915050565b6000806040838503121561135557600080fd5b600061136385828601611318565b92505060206113748582860161132d565b9150509250929050565b60008060006060848603121561139357600080fd5b60006113a186828701611318565b93505060206113b28682870161132d565b92505060406113c38682870161132d565b9150509250925092565b6000602082840312156113df57600080fd5b60006113ed8482850161132d565b91505092915050565b60006114028383611543565b60e08301905092915050565b6114178161180e565b82525050565b611426816117fc565b82525050565b611435816117fc565b82525050565b600061144682611738565b6114508185611750565b935061145b83611728565b8060005b8381101561148c57815161147388826113f6565b975061147e83611743565b92505060018101905061145f565b5085935050505092915050565b6114a281611820565b82525050565b6114b181611820565b82525050565b60006114c4601483611761565b91506114cf826118ce565b602082019050919050565b60006114e7601e83611761565b91506114f2826118f7565b602082019050919050565b600061150a601f83611761565b915061151582611920565b602082019050919050565b600061152d601083611761565b915061153882611949565b602082019050919050565b60e08201600082015161155960008501826115d1565b50602082015161156c602085018261141d565b50604082015161157f60408501826115d1565b506060820151611592606085018261140e565b5060808201516115a5608085018261140e565b5060a08201516115b860a08501826115d1565b5060c08201516115cb60c0850182611499565b50505050565b6115da8161184c565b82525050565b6115e98161184c565b82525050565b6000606082019050611604600083018661142c565b611611602083018561142c565b61161e60408301846115e0565b949350505050565b600060808201905061163b600083018761142c565b611648602083018661142c565b61165560408301856115e0565b61166260608301846114a8565b95945050505050565b60006020820190508181036000830152611685818461143b565b905092915050565b600060208201905081810360008301526116a6816114b7565b9050919050565b600060208201905081810360008301526116c6816114da565b9050919050565b600060208201905081810360008301526116e6816114fd565b9050919050565b6000602082019050818103600083015261170681611520565b9050919050565b600060208201905061172260008301846115e0565b92915050565b6000819050602082019050919050565b600081519050919050565b6000602082019050919050565b600082825260208201905092915050565b600082825260208201905092915050565b600061177d8261184c565b91506117888361184c565b9250827fffffffffffffffffffffffffffffffffffffffffffffffffffffffffffffffff038211156117bd576117bc61189f565b5b828201905092915050565b60006117d38261184c565b91506117de8361184c565b9250828210156117f1576117f061189f565b5b828203905092915050565b60006118078261182c565b9050919050565b60006118198261182c565b9050919050565b60008115159050919050565b600073ffffffffffffffffffffffffffffffffffffffff82169050919050565b6000819050919050565b60006118618261184c565b91507fffffffffffffffffffffffffffffffffffffffffffffffffffffffffffffffff8214156118945761189361189f565b5b600182019050919050565b7f4e487b7100000000000000000000000000000000000000000000000000000000600052601160045260246000fd5b7f50726963652063616e6e6f74206265207a65726f000000000000000000000000600082015250565b7f696e73756666696369656e742066756e647320666f72204c697374696e670000600082015250565b7f5265656e7472616e637947756172643a207265656e7472616e742063616c6c00600082015250565b7f496e636f727265637420616d6f756e7400000000000000000000000000000000600082015250565b61197b816117fc565b811461198657600080fd5b50565b6119928161184c565b811461199d57600080fd5b5056fea2646970667358221220efd4dd2b9f2445f7412f65be6a023b442cbc4dc5a8e61e3772ac2cdbc16452c364736f6c63430008040033",
  "linkReferences": {},
  "deployedLinkReferences": {}
}